:020000022000DC
:1070000000000420197202000172020003720200E3
:1070100005720200077202000972020000000000FF
:107020000000000000000000000000000B720200E1
:107030000D720200000000000F72020011720200C7
:107040000562030013720200A16F030013720200B5
:107050001372020013720200996E03001372020091
:107060001372020013720200137202001372020004
:1070700013720200137202001372020013720200F4
:107080001372020061A30300137202001372020064
:107090001372020013720200B502040013720200A0
:1070A00013720200137202001372020013720200C4
:1070B00013720200137202000000000000000000C2
:1070C00013720200137202001372020013720200A4
:1070D0001372020013720200137202001372020094
:1070E000137202001372020013720200000000000B
:1070F0000000000013720200000000001372020082
:10710000000000000000000000000000000000007F
:10711000000000000000000000000000000000006F
:10712000000000000000000000000000000000005F
:10713000000000000000000000000000000000004F
:10714000000000000000000000000000000000003F
:10715000000000000000000000000000000000002F
:10716000000000000000000000000000000000001F
:10717000000000000000000000000000000000000F
:1071800000000000000000000000000000000000FF
:1071900000000000000000000000000000000000EF
:1071A00000000000000000000000000000000000DF
:1071B00000000000000000000000000000000000CF
:1071C00000000000000000000000000000000000BF
:1071D00000000000000000000000000000000000AF
:1071E000000000000000000000000000000000009F
:1071F000000000000000000000000000000000008F
:10720000FEE7FEE7FEE7FEE7FEE7FEE7FEE7FEE756
:10721000FEE7FEE700F002B8FFF7FCBF0F484FF0B3
:107220000701884385460E4880470E48016841F4AF
:1072300070010160BFF34F8FBFF36F8F00F01AB87A
:1072400009480A490A4A884207D0521A05D00378E9
:1072500001300B700131013AF9D170470000042070
:10726000F99B020088ED00E0A0130400B02D00207F
:10727000C42D0020384939480A1A02D00722914308
:107280008D46374937480A1A06D00722914381F3C1
:107290000988022282F3148833483449344A00F0C2
:1072A0003CF834483449354A00F037F83448354919
:1072B000354A00F032F835483549364A00F02DF8A5
:1072C00035483649364A00F028F836483649374AB4
:1072D00000F023F836483749374A00F01EF837489F
:1072E0003749002200F031F836483749002200F0D3
:1072F0002CF8364A904726482649884205D002682D
:10730000043003B4904703BCF7E700208646EC4600
:10731000002000212E4A9047FEE7884214D0521ADE
:1073200012D003460B4313430324234206D10368C0
:1073300004300B600431043AF9D17047037801300E
:107340000B700131013AF9D17047884202D00270C6
:107350000130FAE7704700000000042000E003203D
:1073600000000420000004208C550400C42D0020DF
:107370001C3B0020D4730200D4730200BC11040033
:107380008C550400C42D0020C42D0020B41304002B
:10739000B4130400B4130400B4130400B4130400C1
:1073A000B4130400B4130400B41304008C55040097
:1073B000E46204001C3B00201C3B00201C3B00201E
:1073C000605400206054002060540020417202008C
:0473D000B58802007A
:1073D40072DF704700BF184673DF704700BF18465E
:1073E40075DF704700BF184676DF704700BF184648
:1073F40077DF704700BF18467ADF704700BF184632
:107404007CDF704700BF18468CDF704700BF18460A
:107414008FDF704700BF184600B583B00346009164
:10742400ADF80630BDF80630009A1946034811F04D
:1074340019FE00BF03B05DF804FB00BFEFBEADDE74
:1074440000B583B00190044AEC21019811F00AFEC2
:1074540000BF03B05DF804FBEC13040000B583B077
:107464000190044AF621019811F0FCFD00BF03B01D
:107474005DF804FBEC13040000B589B00190019B96
:107484005B680793019B1B690693019B1B78002B88
:1074940027D1174B1B785BB21A4600210220FFF755
:1074A400A7FF0590059B0493049B002B05D0114A6C
:1074B4004FF48471049811F0D5FD079B981C0123A7
:1074C4000D4A0699FFF7A0FF0590059B0393039BC4
:1074D400002B08D0074A4FF48771039811F0C2FDBE
:1074E40001E000BF00E000BF00BF09B05DF804FB8D
:1074F400AC390020EC1304009842002000B58BB096
:107504006B4610220021184619F026FE2D4B0093DD
:107514006B462D4A19462D4808F069FE0990099BCF
:107524000893089B002B05D0294A40F223110898A0
:1075340011F098FD274A0021244808F064FC0990C2
:10754400099B0793079B002B05D0214A4FF49571A3
:10755400079811F087FD204A03211C4808F053FCCA
:107564000990099B0693069B002B05D0184A4FF4FB
:107574009871069811F076FD184A0321134808F013
:1075840042FC0990099B0593059B002B05D0104AEA
:1075940040F23511059811F065FD00221F210B48BA
:1075A40008F07EFC0990099B0493049B002B05D0F2
:1075B400074A4FF49D71049811F054FD00BF0BB0BD
:1075C4005DF804FB8C3900207D74020068420020C1
:1075D400EC130400DC1304008439002088390020F3
:1075E40000B583B0094808F05FFE0190019B009349
:1075F400009B002B05D0064A4FF4A371009811F0AC
:1076040031FD00BF03B05DF804FB00BF68420020F9
:10761400EC13040000B583B0002015F0B5FF034659
:1076240083F00103DBB2002B16D0FFF7D9FF002053
:1076340001F0FCFA0A4B1B7801211846FFF7CCFE37
:107644000190019B0093009B002B05D0054A4FF449
:10765400AE71009811F006FD00BF03B05DF804FBA5
:1076640080390020EC13040000B583B00190019828
:107674000AF07AFF01980BF019FB01980AF0D8FF81
:10768400019B1B780D2B02D1FFF7C4FF00E000BF64
:1076940000BF03B05DF804FB00B585B0294808F0CD
:1076A400DFFB0390039B0293029B002B05D0264A29
:1076B40040F27F11029811F0D5FC244A00212148A0
:1076C40008F0A1FB0390039B0193019B002B05D0C1
:1076D4001D4A4FF4C371019811F0C4FC1C4B1B8864
:1076E4004FF6FF7293420BD01A4B1B884FF6FF7272
:1076F400934205D1184A0321124808F084FB0390F1
:10770400144B1B884FF6FF7293420BD0104B1B880F
:107714004FF6FF72934205D1104A0321094808F03D
:1077240072FB0390039B0093009B002B05D0064A39
:1077340040F29911009811F095FC00BF05B05DF876
:1077440004FB00BF68420020EC130400DC130400B7
:107754007C3900207E3900208839002084390020BB
:1077640000B589B001900091009B1B78012B02D0D9
:10777400022B52D080E0424B1B884FF6FF7293429B
:1077840077D1009B5A883E4B1A803E4A3E4BD31A0F
:10779400DB081B0443F00303394A12883B491846AB
:1077A40017F0C2FCFFF778FF354B1988009B0433B0
:1077B4001A4601980DF013FD0690069B0593059B50
:1077C400002B05D0324A40F2B111059811F04AFC61
:1077D4002B4B1B88002118460AF0ACFB0690069B35
:1077E400112B0AD0069B0493049B002B05D0284A36
:1077F4004FF4DB71049811F035FC01980DF0DEFCB8
:107804000690069B0393039B002B32D0204A40F240
:10781400BB11039811F026FC2BE01A4A1A4BD31A19
:10782400DB081B0443F00300009B9B881A4619499C
:1078340017F07AFC009B9B88194617480DF0CBFA89
:107844000790079B002B16D0079B082B13D0079B90
:10785400132B10D0079B112B0DD0079B43F2014231
:10786400934208D00A4A40F2CD11079811F0FAFB6E
:1078740001E000BF00E000BF00BF09B05DF804FBF9
:107884007C390020781204005012040070140400A3
:10789400EC130400941404001C3B002000B58DB0CC
:1078A40001900091009B1B78012B02D0022B53D036
:1078B4009BE0504B1B884FF6FF72934240F092803E
:1078C400009B5A884B4B1A804B4A4C4BD31ADB080B
:1078D4001B0443F00303474A12884949184617F02A
:1078E40023FCFFF7D9FE434B1988009B04331A4647
:1078F40001980EF017F80A900A9B0993099B002B34
:1079040005D0404A40F2ED11099811F0ABFB394B18
:107914001B88002118460AF00DFB0A900A9B112BC4
:107924000AD00A9B0893089B002B05D0354A40F2E5
:10793400F311089811F096FB01980EF093F80A9051
:107944000A9B0793079B002B4CD02E4A4FF4FC71E3
:10795400079811F087FB45E0274A284BD31ADB0828
:107964001B0443F00300009B1B891A46264917F0A9
:10797400DBFB009B9B798DF80E30009B1B798DF807
:107984000C30009B5B798DF80D30009B9B89ADF822
:107994001430009B9B7A8DF81230009B1B89ADF844
:1079A4001030009B1B69069303AB194617480DF072
:1079B40007FE0B900B9B002B16D00B9B082B13D0B0
:1079C4000B9B132B10D00B9B112B0DD00B9B43F255
:1079D4000142934208D00B4A4FF405710B9811F001
:1079E40041FB01E000BF00E000BF00BF0DB05DF847
:1079F40004FB00BF7E3900207812040050120400FA
:107A0400A4140400EC130400E81404006C3B0020EC
:107A140000B587B00346ADF806300023059329E08E
:107A24001949059A13465B0013449B000B44023327
:107A34001B884FF6FF72934219D1059A13465B00D7
:107A440013449B00104A1344BDF8062011461846FF
:107A540007F07DFF0490049B0393039B002B0DD040
:107A64000A4A40F22A21039811F0FCFA06E0059B29
:107A740001330593059B022BD2D900E000BF00BF60
:107A840007B05DF804FB00BF103E0020EC130400B7
:107A940000B58FB00190019B04330D93019B1B88AB
:107AA4003B2B61DC102BC0F29581103B2B2B00F299
:107AB400918101A252F823F0757B02003B7C020005
:107AC400D97D0200D97D0200D97D0200D97D020052
:107AD400D97D0200D97D0200D97D0200D97D020042
:107AE400D97D02000F7D0200D97D0200D97D0200FC
:107AF400D97D02002F7D0200D97D0200597D02004C
:107B0400D97D0200D97D0200D97D0200D97D020011
:107B1400D97D0200D97D0200D97D0200D97D020001
:107B2400D97D0200D97D0200D97D0200D97D0200F1
:107B3400D97D0200D97D0200D97D0200D97D0200E1
:107B4400D97D0200D97D0200D97D0200D97D0200D1
:107B5400D97D0200D97D0200D97D0200D97D0200C1
:107B6400D97D02008D7D0200562B00F0208131E189
:107B7400A14AA24BD31ADB081B0443F00303A04918
:107B8400184617F0C3FA9F4B1B884FF6FF729342B7
:107B940005D09D4B1B884FF6FF72934234D1964A11
:107BA400964BD31ADB081B0443F003000D9B1B8880
:107BB4001A46964917F0B8FA0D9B1B881946944843
:107BC40005F01AF80C900C9B112B12D10D9B1B88FD
:107BD4001946904805F010F80C900C9B0493049BF4
:107BE400002B11D08C4A4FF41471049811F03AFA16
:107BF4000AE00C9B0593059B002B05D0864A4FF4A5
:107C04001571059811F02EFA0D9B1B881846FFF785
:107C1400FFFE012001F00AF804F090F80346022B5D
:107C240003D1002001F01CF8E1E0002000F0FEFF89
:107C3400FFF7D6FCDBE00D9B1A88724B1B889A4237
:107C440021D16D4A6D4BD31ADB081B0443F00300AA
:107C54000D9B1B791A46714917F066FA694B4FF66A
:107C6400FF721A806E4A03216E4808F0CCF80C901B
:107C74000C9B0793079B002B05D0674A40F27721A2
:107C8400079811F0EFF90D9B1A885F4B1B889A42F5
:107C940021D1594A594BD31ADB081B0443F0030082
:107CA4000D9B1B791A46604917F03EFA564B4FF666
:107CB400FF721A805D4A03215A4808F0A4F80C9018
:107CC4000C9B0693069B002B05D0534A40F283215C
:107CD400069811F0C7F94C4B1B884FF6FF7293427C
:107CE40005D0484B1B884FF6FF72934204D1FFF72F
:107CF40077FC002000F09AFF04F020F80346002BE4
:107D04006AD1012000F0ACFF66E00D9B1B79022BC9
:107D140064D1394A394BD31ADB081B0443F00303FB
:107D24004349184617F0F2F958E00D9B1A880D9B49
:107D3400043319461046FFF753FB0C900C9B089331
:107D4400089B002B4CD0344A4FF42971089811F049
:107D540089F945E000238DF80C3000238DF80D30AF
:107D6400019B9B8803AA11461846FFF751FB0C9010
:107D74000C9B0993099B002B34D0274A4FF42C7198
:107D8400099811F06FF92DE0019B9B881321184687
:107D9400FFF72AFB0C900C9B0A930A9B002B23D021
:107DA4001D4A4FF42E710A9811F05CF91CE0019BF6
:107DB4009B8813211846FFF717FB0C900C9B0B9321
:107DC4000B9B002B12D0144A4FF430710B9811F016
:107DD40049F90BE000BF0AE000BF08E000BF06E07D
:107DE40000BF04E000BF02E000BF00E000BF00BF2E
:107DF4000FB05DF804FB00BF7812040050120400B9
:107E0400F81404007C3900207E3900200C1504008D
:107E1400DC2D0020AC330020EC1304003C150400DE
:107E24008439002068420020641504008839002049
:107E34008C15040000B58BB00190019B04330793AB
:107E4400019B1B88562B00F09980562B00F3AC80C5
:107E54003B2B7DD03B2B00F3A780212B5ED0212B25
:107E640000F3A280102B02D0112B2FD09CE0534A98
:107E7400534BD31ADB081B0443F003035149184640
:107E840017F044F9022000F0EBFE032000F0CEFED0
:107E94004D4817F047FF019B9B884C4A127852B219
:107EA40019460320FFF7A4FA0990099B0393039B47
:107EB400002B05D0464A4FF43771039811F0D2F8DD
:107EC400019B9B881846FFF7A3FD72E03B4A3C4B9D
:107ED400D31ADB081B0443F00300079B1B881A46D4
:107EE400079B1B793B4917F030F9032000F0B8FEDB
:107EF400394817F017FF394B1B7801211846FFF753
:107F04006BFA0990099B0493049B002B4ED0304AD2
:107F140040F2EB21049811F0A5F847E000238DF816
:107F2400083000238DF80930019B9B8802AA114672
:107F34001846FFF76DFA0990099B0593059B002BE2
:107F440036D0234A40F2F721059811F08BF82FE040
:107F5400019B9B8813211846FFF746FA0990099B59
:107F64000893089B002B05D0194A40F2FF2108987A
:107F740011F078F81A4817F0D5FE1AE0019B9B8897
:107F840013211846FFF730FA0990099B0693069BC4
:107F9400002B05D00E4A4FF44271069811F062F896
:107FA400104817F0BFFE04E000BF02E000BF00E08D
:107FB40000BF00BF0BB05DF804FB00BF78120400E3
:107FC40050120400AC150400C4150400AC390020A0
:107FD400EC130400D01504000C16040080390020B2
:107FE4001C1604003416040000B585B003468DF851
:107FF40007309DF80730002B10D0032B27D1164AE9
:10800400164BD31ADB081B0443F003031449184628
:1080140017F07CF8022000F009FE19E0114B1B78E0
:1080240001211846FFF7D8F90390039B0293029BA2
:10803400002B05D00C4A40F22631029811F012F8B8
:108044000A4817F06FFE022000F0F0FD00E000BFC8
:1080540000BF05B05DF804FB781204005012040060
:108064004C16040080390020EC1304006016040050
:1080740082B00190019B1B88262B0CBF0123002397
:10808400DBB2184602B0704700B585B0019000918C
:10809400019B9B88ADF80E30BDF80E30184603F0F6
:1080A400A5FD0346ADF80C30BDF80C30012B05D00E
:1080B4000198FFF7DDFF0346002B0ED01749019806
:1080C4000CF025FD164901980DF037F90198FFF7DA
:1080D400B1FE144817F026FE1CE0BDF80C30022B4C
:1080E40003D0019B1B881D2B14D10F4901980DF05F
:1080F40005F80E4901980DF050FC0198FFF7C8FCF3
:108104000B4817F00FFEBDF80C30022B02D10948C2
:1081140017F008FE00BF05B05DF804FB1C3B00200F
:108124006C3B002074160400883B00209C3B00201C
:10813400881604009816040000B587B00D4B01930F
:108144000D4B02930D4B039301AB19460C480CF0F5
:10815400A1FF0590059B0493049B002B05D0094ABD
:1081640040F26D31049810F07DFF00BF07B05DF858
:1081740004FB00BF6577020045740200C82D00208F
:10818400883B0020EC13040000B587B00D4B01932D
:108194000D4B02930D4B039301AB19460C480DF0A4
:1081A4008DFB0590059B0493049B002B05D0094A85
:1081B40040F27D31049810F055FF00BF07B05DF820
:1081C40004FB00BFA178020045740200C82D002002
:1081D4009C3B0020EC13040000B587B017F088FF27
:1081E4000590059B0493049B002B05D0164A40F28E
:1081F4008A31049810F036FF0023019301AB19462D
:10820400012018F08BF80590059B0393039B002B2A
:1082140005D00D4A4FF46471039810F023FF01ABAD
:10822400184618F06FF90590059B0293029B002BEA
:1082340005D0054A4FF46571029810F013FF00BF92
:1082440007B05DF804FB00BFEC13040000B587B071
:1082540009F06EFD0590059B0493049B002B05D04B
:10826400384A40F2A331049810F0FCFE6B46052214
:108274000021184618F070FF9DF8003043F0010308
:108284008DF800309DF800306FF341038DF8003015
:108294009DF800306FF382038DF800309DF80030B4
:1082A4006FF3C3038DF800309DF80030032262F3AE
:1082B40006138DF800309DF800306FF3C7138DF866
:1082C400003007238DF8013010238DF802309DF81B
:1082D400033043F001038DF803309DF8033043F07D
:1082E40002038DF803309DF8043043F001038DF848
:1082F40004309DF8043043F002038DF804306B46DB
:10830400184609F0FFFD0590059B0393039B002B82
:1083140005D00C4A40F2B631039810F0A3FE0A4887
:1083240009F0C8FD0590059B0293029B002B05D024
:10833400044A40F2B931029810F094FE00BF07B02D
:108344005DF804FBEC1304006D76020000B583B005
:108354000E4A0F4BD31ADB081B0443F003030D49E9
:10836400184616F0D3FE09F043FE0190019B0093DA
:10837400009B002B05D0084A40F2C631009810F04B
:1083840071FE00BF03B05DF804FB00BF7812040067
:1083940050120400A4160400EC13040000B587B0C6
:1083A40001900021032001F0A7F80590059B049398
:1083B400049B002B05D0124A40F2D531049810F0EA
:1083C40051FE0DF10B031946002001F019FA059036
:1083D400059B0393039B002B05D0094A4FF4767148
:1083E400039810F03FFE9DF80B30022B0CBF0123C5
:1083F4000023DAB2019B1A7000BF07B05DF804FBDA
:10840400EC13040000B587B09DF80030012262F33C
:1084140003038DF800309DF80030012262F3071346
:108424008DF800306B4612221C491846FEF7E8FF0F
:108434000590059B0493049B002B05D0184A40F239
:10844400EE31049810F00EFE01AB0822002118460C
:1084540018F082FE134B1B8EADF80430114B5B8E6B
:10846400ADF806300F4B9B8EADF808300D4BDB8E0C
:10847400ADF80A3001AB1846FEF7BEFF0590059B28
:108484000393039B002B05D0054A4FF47E71039898
:1084940010F0E8FD00BF07B05DF804FBB41604005B
:1084A400EC1304006842002000B583B000210948A1
:1084B40006F02EFD0190019B0093009B002B05D03C
:1084C400054A40F20141009810F0CCFD00BF03B012
:1084D4005DF804FBEC3D0020EC13040000B58BB008
:1084E40001AB1C220021184618F036FE002301932C
:1084F4004FF4A03302934FF4F023039303238DF836
:1085040010304FF6FF73ADF8123001238DF814309C
:10851400002306930A4B079301AB184603F004F8B3
:108524000990099B0893089B002B05D0054A4FF43A
:108534008361089810F096FD00BF0BB05DF804FB52
:1085440061740200EC13040000B585B00190019B36
:108554005B680393019916480CF036FD01991548A0
:108564000DF046F9019B1B78032B1CD1124A134BC7
:10857400D31ADB081B0443F00300039A019B5B88B6
:108584000F4916F0E2FD0C4A0C4BD31ADB081B040E
:1085940043F00300039B93F8C4321A46019B5B88A3
:1085A400084916F0D2FD00BF05B05DF804FB00BF1A
:1085B400883B00209C3B00207812040050120400E9
:1085C400C81604000017040000B585B06B460822E5
:1085D4000021184618F0C0FD0B4B00930B4B019380
:1085E4006B46184604F044FA0390039B0293029BE3
:1085F400002B05D0064A40F24341029810F032FDA8
:1086040000BF05B05DF804FB4D850200C82D0020B5
:10861400EC13040000B583B00190054A4FF48A615D
:10862400019810F01FFD00BF03B05DF804FB00BF0C
:10863400EC13040000B593B000230293384B02936B
:10864400002311931AE0119A13465B0013449B0014
:10865400344A134402AA1146184607F056F91090FA
:10866400109B0D930D9B002B05D02F4A40F26641C1
:108674000D9810F0F7FC119B01331193119B022B01
:10868400E1D903238DF8073009AB102200211846E5
:1086940018F062FD0023099301238DF828300DF1B1
:1086A40007030B9301238DF8303001238DF831300B
:1086B40009AB19461D480CF0F5FA1090109B0F9366
:1086C4000F9B002B05D0184A40F277410F9810F009
:1086D400C9FC03AB18220021184618F03DFD002305
:1086E40003930523ADF8123001238DF811300123D3
:1086F4008DF8103003AB19460D480CF0CAFE1090EB
:10870400109B0E930E9B002B05D0074A40F2854127
:108714000E9810F0A7FC00BF13B05DF804FB00BF77
:1087240019860200103E0020EC1304001C3B0020BC
:108734006C3B002000B59BB007AB3C2200211846DF
:1087440018F00AFD02238DF81C3001238DF81E3029
:1087540006238DF81F300223ADF82C30234B0C93E5
:10876400234B1993234B196807AB234A184601F08E
:10877400C8FF1890189B1793179B002B05D01F4A0E
:1087840040F2A641179810F06DFC01AB18220021AD
:10879400184618F0E1FC04238DF8193004238DF8F1
:1087A4001A3044F25063ADF8103006238DF80430CB
:1087B4000023029300238DF818304FF4967303932B
:1087C40001AB1A460B490E48FEF702FE1890189B9F
:1087D4001693169B002B05D0084A40F2B641169812
:1087E40010F040FC00BF1BB05DF804FB843900208E
:1087F400ED7F02009C390020A0390020EC13040016
:108804008039002000B583B04FF48041002016F079
:10881400A7F90190019B0093009B002B05D0064A09
:1088240040F2C141009810F01DFC16F02FF900BF72
:1088340003B05DF804FB00BFEC13040000B583B083
:1088440015F0FAFB0190019B0093009B002B05D0CF
:10885400044A40F2CD41009810F004FC00BF03B07C
:108864005DF804FBEC13040008B516F0D9FC0346CC
:1088740083F00103DBB2002B01D015F0F3FB00BF42
:1088840008BD000000B583B010F09CFF0190019B6F
:108894000093009B002B05D0044A40F2E24100986B
:1088A40010F0E0FB00BF03B05DF804FBEC13040020
:1088B40000B583B0FFF7A6FFFFF7E4FF0DF1070350
:1088C4001846FFF76BFDFFF7B9FFFFF785FCFEF7CE
:1088D40015FEFFF797FDFFF7E7FDFFF7FFFDFFF735
:1088E40073FEFFF7B3FCFFF727FCFFF74DFCFFF720
:1088F400A1FEFFF71FFF0B4A0B4BD31ADB081B0427
:1089040043F003030949184616F000FC9DF80730AC
:10891400002B02D0FFF71AFD01E0FEF77BFEFFF704
:10892400A3FFFCE778120400501204002817040087
:1089340000B583B00190019B1B68184600F01FF935
:108944000346002B04D10B494FF4F670FEF764FD87
:10895400019B1B681F2B02D84FF0A04306E0019B2C
:108964001B6803F01F02019B1A60034B184603B0F7
:108974005DF804FB401704000003005000B585B007
:108984000190084611461A4603468DF803300B46FB
:108994008DF8023013468DF8013001AB1846FFF70D
:1089A400C7FF03909DF803209DF802305B001A4333
:1089B4009DF801309B001A439DF818301B0242EACF
:1089C40003019DF81C301B04019A1943039B02F513
:1089D400E07243F8221000BF05B05DF804FB00B557
:1089E40085B0039000230193002300930023012208
:1089F40001210398FFF7C2FF00BF05B05DF804FB37
:108A040000B585B003900B468DF80B309DF80B3004
:108A14000022019200220092002200210398FFF715
:108A2400ADFF00BF05B05DF804FB00B585B0019053
:108A340001AB1846FFF77CFF0390019B012202FA69
:108A440003F31946039800F086F800BF05B05DF8FB
:108A540004FB00B585B0019001AB1846FFF768FF31
:108A64000390019B012202FA03F31946039800F0D4
:108A74007CF800BF05B05DF804FB00B585B001903B
:108A840001AB1846FFF754FF0390039BD3F804355A
:108A94000293029BDA43019B012101FA03F31A407A
:108AA400039BC3F80825019B01229A40029B1A40AC
:108AB400039BC3F80C2500BF05B05DF804FB00B5AB
:108AC40083B001900091009B002B03D10198FFF724
:108AD400C0FF02E00198FFF7A8FF00BF03B05DF8F4
:108AE40004FB00B585B0019001AB1846FFF720FFE9
:108AF4000390039800F01FF80246019B22FA03F347
:108B040003F00103184605B05DF804FB00B585B019
:108B1400019001AB1846FFF70BFF0390039800F098
:108B240012F80246019B22FA03F303F001031846EC
:108B340005B05DF804FB82B00190019BD3F81035B9
:108B4400184602B0704782B00190019BD3F80435F7
:108B5400184602B0704782B001900091019B009AC0
:108B6400C3F8082500BF02B0704782B0019000919D
:108B7400019B009AC3F80C2500BF02B0704784B073
:108B84000190019B5B09029300230393029B002B3A
:108B940003D0029B012B04D007E04FF0FF33039373
:108BA40003E04FF6FF73039300BF019B03F01F0321
:108BB4000193039A019B22FA03F303F00103002BB0
:108BC40014BF01230023DBB2184604B07047000031
:108BD40000B585B00190019B032B03D911493A20BC
:108BE400FEF71AFC104A019B13441B781846FFF742
:108BF4008DFF0346002B14BF012300238DF80F3093
:108C04009DF80F30002B14BF01230023DBB283F047
:108C14000103DBB203F00103DBB2184605B05DF8D3
:108C240004FB00BF74170400C417040000B583B02C
:108C34000190019B032B03D907494120FEF7ECFB6C
:108C4400064A019B13441B7800211846FFF737FF9F
:108C540000BF03B05DF804FB74170400C4170400DC
:108C640000B583B00190019B032B03D9074947202A
:108C7400FEF7D2FB064A019B13441B7801211846D8
:108C8400FFF71DFF00BF03B05DF804FB7417040079
:108C9400C417040000B583B00023019305E00198D4
:108CA400FFF7DEFF019B01330193019B032BF6D9F0
:108CB40000BF00BF03B05DF804FB00B583B0002320
:108CC400019305E00198FFF7B1FF019B0133019384
:108CD400019B032BF6D900BF00BF03B05DF804FB72
:108CE40000B583B00190019B032B03D907495F2092
:108CF400FEF792FB064A019B13441B781846FFF7C4
:108D0400BCFE00BF03B05DF804FB00BF7417040091
:108D1400C417040000B583B00023019309E0094A95
:108D2400019B13441B781846FFF759FE019B01333E
:108D34000193019B032BF2D9FFF7ACFF00BF03B0F3
:108D44005DF804FBC417040000B585B00190019BD5
:108D5400032B03D91149AC20FEF75EFB104A019B9B
:108D640013441B781846FFF7BCFE0346002B14BFC0
:108D7400012300238DF80F309DF80F30002B14BF12
:108D840001230023DBB283F00103DBB203F0010310
:108D9400DBB2184605B05DF804FB00BF741704008D
:108DA400C817040000B583B0002301930AE0094A00
:108DB400019B13441B7803211846FFF721FE019BF6
:108DC40001330193019B032BF1D900BF00BF03B012
:108DD4005DF804FBC817040084B001904FF0FF3322
:108DE4000293002303930DE00A4A039B13441B7868
:108DF4001A46019B934202D1039B029305E0039B15
:108E040001330393039B032BEED9029B184604B052
:108E1400704700BFC817040000B583B00190019BE0
:108E240003F00103002B01D0FFF774FF019B03F053
:108E34000203002B01D0FFF7B5FF00BF03B05DF8BC
:108E440004FB00B583B00190019B032B04D8019867
:108E5400FFF77AFF034600E00023184603B05DF8ED
:108E640004FB000000B587B003460A468DF80730BE
:108E740013468DF8063000238DF817300023049331
:108E84009DF807301846FFF7A7FF0490049B032BB7
:108E940062D89DF80630022B52D0022B5CDC002BEA
:108EA40031D0012B58D13549049A13465B00134441
:108EB4000B441B788DF817303049049A13465B0035
:108EC40013440B4401331B78002B0ED02C4B2D4A3A
:108ED4004FF48041184610F0EDFC0390039B002BE7
:108EE40003D1284A9DF8073013702449049A134685
:108EF4005B0013440B4402331978234A049B134444
:108F04000A461A7028E01E4B184610F02BFD1E4A24
:108F1400049B134419781948049A13465B001344BC
:108F2400034402331B78994215D11449049A134619
:108F34005B0013440B4402331B788DF817300AE0AE
:108F44000E49049A13465B0013440B4401331B7807
:108F54008DF8173000E000BF9DF81730002B09D0C2
:108F64000A4B1B68002B05D0084B1B689DF8172083
:108F74001046984700BF07B05DF804FBEC4300209F
:108F8400F0390020F8430020FC430020E84300208F
:108F940000B583B00190019B1B7802211846FFF7AE
:108FA40061FF00BF03B05DF804FB000000B583B0AF
:108FB4000C4B1B78002B0FD00023019308E0019B7E
:108FC400022B02D00198FFF74BFE019B0133019362
:108FD400019B032BF3D901E0FFF75CFE00BF03B054
:108FE4005DF804FBE44300202DE9D04F92B0034622
:108FF4008DF83F300023119300231093CC4B1B7842
:10900400002B04D0CA4A00231370FFF7CFFF9DF84A
:109014003F30172B00F23F8201A252F823F000BF29
:10902400859002009D9002009D90020039910200FB
:10903400D591020051920200E592020005930200CC
:1090440015930200419302005F9302007D93020096
:109054009B930200A9930200A9930200A993020022
:10906400A9930200A99302003D9402004B940200CC
:109074005F940200739402008D9402008D940200A8
:10908400FFF794FFAB4B184610F06CFC1190AA4A02
:109094009DF83F301370FFE10020FFF799FD034670
:1090A400002B0DD00020FFF7DBFD9DF83F30022B95
:1090B40002D14FF4E16301E04FF47A6310930BE0C3
:1090C4000020FFF7B3FD9DF83F30022B01D1C823E8
:1090D40001E04FF4C8731093974A9DF83F30137022
:1090E400944C109B0022009301924FF000024FF029
:1090F4000003DDE900673946CB03314643EA5143B7
:109104003146CA0312F57A71029143F100030393C5
:109114004FF4FA624FF00003DDE9020117F070FB2F
:1091240002460B46134600221946204610F0C2FBA5
:109134001190B1E10020FFF74BFD0346002B0DD049
:109144000020FFF78DFD9DF83F30032B02D14FF433
:10915400487301E04FF47A6310930BE00020FFF7AB
:1091640065FD9DF83F30032B01D1C82301E04FF486
:10917400C8731093704A9DF83F3013706D4C109B68
:109184000022049305924FF000024FF00003DDE942
:1091940004673946CB03314643EA51433146CA0397
:1091A40012F57A71069143F1000307934FF4FA62C2
:1091B4004FF00003DDE9060117F022FB02460B46DF
:1091C400134600221946204610F074FB119063E107
:1091D4000020FFF7FDFC0346002B06D00020FFF71C
:1091E4003FFD4FF47A63109305E00020FFF71EFD66
:1091F4004FF4C8731093504A9DF83F3013704D4C90
:10920400109B00229A4693464FF000024FF0000351
:109214004FEACB3343EA5A434FEACA3212F57A7122
:10922400089143F1000309934FF4FA624FF00003ED
:10923400DDE9080117F0E4FA02460B461346002262
:109244001946204610F036FB119025E10020FFF767
:10925400BFFC0346002B0CD00020FFF701FD9DF856
:109264003F30052B01D1C82301E04FF47A631093FA
:109274000BE00020FFF7DAFC9DF83F30052B01D10D
:10928400C82301E04FF4C87310932B4A9DF83F3074
:109294001370284C109B0022984691464FF0000210
:1092A4004FF000034FEAC93343EA58434FEAC83248
:1092B40012F57A710A9143F100030B934FF4FA62A9
:1092C4004FF00003DDE90A0117F09AFA02460B4653
:1092D400134600221946204610F0ECFA1190DBE008
:1092E4000020FFF7FDFC144A9DF83F301370114B2A
:1092F400002240F26661184610F0DCFA1190CBE0CF
:109304000020FFF793FC0C4A9DF83F301370C3E034
:10931400074B01221A700120FFF7E2FC054B0022E3
:1093240040F26661184610F0C5FA1190B4E000BF2F
:10933400DC430020B0390020DB430020594B0122DC
:109344001A700120FFF7CCFC574B00224FF4005158
:10935400184610F0AFFA11909EE0524B01221A7099
:109364000120FFF7BDFC504B002240F26661184615
:1093740010F0A0FA11908FE04A4B01221A700120DC
:10938400FFF7AEFC484B00224FF40051184610F092
:1093940091FA119080E0FFF790FC444A9DF83F3029
:1093A400137079E0424B184610F0DCFA11909DF8E6
:1093B4003F30C3F111031093109B002B35D0119B48
:1093C400002B32D1109B012B28D9394C109B9BB216
:1093D4001A46C82302FB03F3DA171E4617464FF05A
:1093E40000024FF00003FB0343EA5643F20312F575
:1093F4007A710C9143F100030D934FF4FA624FF02C
:109404000003DDE90C0117F0FBF902460B46134695
:1094140000221946204610F04DFA11900220FFF761
:1094240005FC244B01221A7036E00220FFF718FCD9
:10943400204B00221A702FE0FFF7B8FD1B4A9DF85D
:109444003F30137028E0FFF7B1FD0020FFF7EEFB7B
:10945400164A9DF83F3013701EE0FFF7A7FD012068
:10946400FFF7E4FB114A9DF83F30137014E0FFF757
:109474009DFD0020FFF7DAFB0120FFF7D7FB0B4A25
:109484009DF83F30137007E0FFF717FC074A9DF87B
:109494003F30137000E000BF119B184612B0BDE8C6
:1094A400D08F00BFDC430020B0390020DB43002014
:1094B400D0390020E443002000B583B00190074B6D
:1094C4001B6803F00103002B04D0054B1B781846DE
:1094D400FFF78AFD00BF03B05DF804FBE043002002
:1094E400DB43002000B583B001900220FFF7F8FBB6
:1094F40000BF03B05DF804FB00B585B00190009196
:10950400002303932A4A019B13602A4A009B136099
:10951400019B03F00203002B2AD00023029308E0EE
:1095240001220121029800F055F80390029B0133B7
:109534000293029B032B02D8039B002BF0D0039BC6
:10954400002B06D140F2333204211B480FF08AFC71
:109554000390039B002B02D10FF00CFD0390039B9F
:10956400002B05D1154A0021154810F069F9039024
:10957400019B03F00103002B14D00120FFF74CFCE6
:10958400039B002B05D10F4A00210F4810F058F916
:109594000390039B002B05D10C4A01210C4810F0C9
:1095A4004FF90390039B184605B05DF804FB00BF18
:1095B400E0430020E8430020D8170400958F020000
:1095C400D4170400BD940200CC170400E9940200EF
:1095D400D017040084B001900B468DF80330134675
:1095E4008DF8023000230393019B032B3CD89DF894
:1095F4000230012B0BD19DF80330012B04D1019BC8
:10960400DBB20E33DBB200E000238DF802309DF8AC
:109614000330022B0FD0022B23DC002B16D0012B9E
:109624001FD11449019A13465B0013440B449DF85F
:1096340002201A701AE00F49019A13465B00134482
:109644000B4401339DF802201A700FE00949019A76
:1096540013465B0013440B4402339DF802201A7036
:1096640004E00723039301E007230393039B1846B5
:1096740004B07047EC43002000B583B00122002100
:109684000020FFF7A7FF0190019B002B04D0019B52
:10969400072B01D0019B1CE0072202210120FFF7C8
:1096A40099FF0190019B002B04D0019B072B01D053
:1096B400019B0EE0042202210020FFF78BFF0190A2
:1096C400019B002B04D0019B072B01D0019B00E0E0
:1096D4000023184603B05DF804FB00B583B00122F3
:1096E40002210020FFF776FF0190019B002B04D09C
:1096F400019B072B01D0019B1CE0072202210120C2
:10970400FFF768FF0190019B002B04D0019B072BFE
:1097140001D0019B0EE00A2200210020FFF75AFF2E
:109724000190019B002B04D0019B072B01D0019BCE
:1097340000E00023184603B05DF804FB00B583B0D5
:1097440001900120FFF77DFB0346002B03D0019B12
:1097540002221A700CE00020FFF773FB0346002B73
:1097640003D0019B0B221A7002E0019B00221A70A5
:1097740000BF03B05DF804FB00B585B00190009113
:10978400019B1B88102B02D0112B18D02FE01A4BF1
:109794001B68002B0DD1FFF76FFF0390039B002B79
:1097A40007D0164B1B68002B03D0144B1B6803987F
:1097B4009847114B1B6801330F4A136017E00E4B97
:1097C4001B68013B0C4A13600B4B1B68002B0DD12B
:1097D400FFF783FF0390039B002B07D0074B1B6805
:1097E400002B03D0054B1B680398984700BF00BFAC
:1097F40005B05DF804FB00BF0444002000440020D1
:1098040000B585B001900091002303930A4A019B9F
:109814001360009B002B02D00098FFF78FFF074BCB
:109824001B68002B02D1FFF758FF0390039B1846D7
:1098340005B05DF804FB00BF004400200444002090
:10984400BFF34F8F00BF064BDB6803F4E0620449AB
:10985400044B1343CB60BFF34F8F00BF00BFFDE742
:1098640000ED00E00400FA0582B0164B1B6801937A
:10987400154B1B680093019B082B1FD1009B052BE4
:109884001AD801A252F823F0A5980200A998020060
:10989400AD980200B1980200B5980200B998020090
:1098A40001230CE001230AE0012308E0012306E080
:1098B400012304E0012302E0012300E00023184611
:1098C40002B07047300100103401001082B0164B12
:1098D4001B680193154B1B680093019B082B1FD138
:1098E400009B052B1AD801A252F823F00999020013
:1098F4000D990200119902001599020019990200AC
:109904001D99020001230CE001230AE0012308E071
:10991400012306E0012304E0012302E0012300E027
:109924000023184602B070473001001034010010C3
:1099340082B0164B1B680193154B1B680093019B67
:10994400082B1FD1009B052B1AD801A252F823F033
:109954006D990200719902007599020079990200CB
:109964007D9902008199020001230CE000230AE0A2
:10997400002308E0002306E0002304E0002302E0C3
:10998400002300E00023184602B0704730010010A5
:109994003401001082B0164B1B680193154B1B68F1
:1099A4000093019B082B1FD1009B052B1AD801A201
:1099B40052F823F0D1990200D5990200D9990200F6
:1099C400DD990200E1990200E599020001230CE00F
:1099D40000230AE0002308E0002306E0002304E05B
:1099E400002302E0002300E00023184602B0704781
:1099F400300100103401001082B0164B1B68019333
:109A0400154B1B680093019B082B1FD1009B052B52
:109A14001AD801A252F823F0359A0200399A0200AA
:109A24003D9A0200419A0200459A0200499A0200B6
:109A340001230CE000230AE0002308E0002306E0F1
:109A4400002304E0002302E0002300E00023184682
:109A540002B07047300100103401001082B0164B80
:109A64001B680193154B1B680093019B082B1FD1A6
:109A7400009B052B1AD801A252F823F0999A0200F0
:109A84009D9A0200A19A0200A59A0200A99A0200D6
:109A9400AD9A020001230CE000230AE0002308E051
:109AA400002306E0002304E0002302E0002300E09A
:109AB4000023184602B07047300100103401001032
:109AC40082B0164B1B680193154B1B680093019BD6
:109AD400082B1FD1009B052B1AD801A252F823F0A2
:109AE400FD9A0200019B0200059B0200099B0200F3
:109AF4000D9B0200119B020001230CE001230AE0EC
:109B0400012308E0012306E0012304E0012302E02D
:109B1400012300E00023184602B070473001001012
:109B24003401001082B0164B1B680193154B1B685F
:109B34000093019B082B1FD1009B052B1AD801A26F
:109B440052F823F0619B0200659B0200699B0200AE
:109B54006D9B0200719B0200759B020000230CE0C8
:109B640000230AE0002308E0002306E0012304E0C8
:109B7400012302E0012300E00023184602B07047ED
:109B8400300100103401001008B5FFF7CBFF034685
:109B9400002B07D04FF010234FF08042D3F8083247
:109BA400C2F8583500BF08BD00BF044BD3F80034D9
:109BB400002BFAD000BF00BF704700BF00E0014097
:109BC40000B583B00190054A019BC2F80435FFF744
:109BD400EBFF00BF03B05DF804FB00BF00E00140F1
:109BE400024B034A1A6000BF704700BF103A0020BE
:109BF4000090D00308B5FFF737FE0346002B0ED0C4
:109C04004FF080430022C3F80C214FF08043002220
:109C1400C3F810214FF080430022C3F83825FFF722
:109C240055FE0346002B76D04FF08053734AD3F889
:109C34000434C2F820354FF08053704AD3F8083406
:109C4400C2F824354FF080536C4AD3F80C34C2F870
:109C540028354FF08053694AD3F81034C2F82C35B4
:109C64004FF08053654AD3F81434C2F830354FF0BE
:109C74008053624AD3F81834C2F834354FF0805315
:109C84005E4AD3F81C34C2F840354FF080535B4A27
:109C9400D3F82034C2F844354FF08053574AD3F8F0
:109CA4002434C2F848354FF08053544AD3F828344A
:109CB400C2F84C354FF08053504AD3F82C34C2F8D4
:109CC40050354FF080534D4AD3F83034C2F85435F0
:109CD4004FF08053494AD3F83434C2F860354FF01A
:109CE4008053464AD3F83834C2F864354FF0805371
:109CF400424AD3F83C34C2F868354FF080533F4AA7
:109D0400D3F84034C2F86C354FF080533B4AD3F853
:109D14004434C2F87035FFF70BFE0346002B02D023
:109D2400374B384A1A60FFF735FE0346002B03D041
:109D3400354BFB22C3F81825FFF75EFE0346002BC4
:109D44000AD0324B1B6823F00F02314B1B6803F01F
:109D54000F032E4913430B60FFF780FE0346002BCD
:109D640003D02C4B4FF400721A60FFF7A9FE034690
:109D7400002B0DD04FF08043D3F8003403F00103DF
:109D8400002B05D04FF080436FF00102C3F800248C
:109D9400214BD3F88830204A43F47003C2F888304A
:109DA400BFF34F8F00BFBFF36F8F00BFFFF7ECFE11
:109DB4004FF01023D3F80032002B05DB4FF01023B3
:109DC400D3F80432002B15DA0120FFF7F9FE4FF027
:109DD40010231222C3F80022FFF7E6FE4FF01023EF
:109DE4001222C3F80422FFF7DFFE0020FFF7E8FE8B
:109DF400FFF726FDFFF7F4FE00BF08BD00C00040DA
:109E04008C5600404881030000F00040E40E0040FE
:109E1400580200104096024000ED00E06DDF7047EC
:109E240000BF184679DF704700BF18467DDF7047D2
:109E340000BF184664DF704700BF184682B003466F
:109E44000091ADF80630BDF80630DAB2009B1A7006
:109E5400BDF806301B0A9AB2009B0133D2B21A70C5
:109E64000223184602B0704700B589B003900291EE
:109E74001346ADF80630029B1B8803F10902BDF8B6
:109E840006309A4201D90C2353E004AB1846FFF77D
:109E9400C5FF0790079B0693069B002B01D0069BEA
:109EA40047E0029B1B881A46039B134408221A703E
:109EB400029B1B8801339AB2029B1A80029B1B8867
:109EC4001A46039B13441B221A70029B1B880133FE
:109ED4009AB2029B1A80029B1B881A46039B98180D
:109EE40004AB01330622194617F004F9029B1B88C0
:109EF40006339AB2029B1A809DF8103023F00103B6
:109F0400DBB2002B07D1029B1B881A46039B134428
:109F140000221A7006E0029B1B881A46039B134416
:109F240001221A70029B1B8801339AB2029B1A8089
:109F34000023184609B05DF804FB00B589B003900E
:109F440002910192ADF80230039B1B78012B05D1DD
:109F5400039B5B78002B01D1072391E0019B1B88B5
:109F64009A1CBDF802309A420ED8039B1B78012B31
:109F74000CD1019B1B881A46039B5B7813449A1CE3
:109F8400BDF802309A4201D90C2379E0019B1B8869
:109F9400BDF80220D31A9BB2023BADF81C30BDF8C9
:109FA4001C30ADF81230019B1B880233029A134413
:109FB4000DF1120211461846FFF738FF0690069B72
:109FC4000593059B002B01D0059B59E0039B1B784F
:109FD400022B06D0039B5B781A46BDF812309A42D6
:109FE40009D3BDF81230BDF81C209A4203D30923CB
:109FF4008DF81F3016E008238DF81F30039B1B7863
:10A00400012B0BD1039B5B781A46BDF81C3093429D
:10A0140004D3039B5B78ADF8123003E0BDF81C3029
:10A02400ADF81230BDF81230FE2B01D90C2327E015
:10A03400BDF81230DAB2019B1B881946029B0B440F
:10A044000132D2B21A70019B1B8801339AB2019B70
:10A054001A80019B1B881A46029B13449DF81F20FB
:10A064001A70019B1B8801339AB2019B1A80019BD1
:10A074001A88BDF8123013449AB2019B1A80002347
:10A08400184609B05DF804FB00B589B0039002914D
:10A094001346ADF80630029B1B881A1DBDF8063026
:10A0A4009A4201D90C233AE00DF116031846FFF742
:10A0B400B9FE0790079B0693069B002B01D0069BD5
:10A0C4002DE0029B1B881A46039B134403221A703B
:10A0D400029B1B8801339AB2029B1A80029B1B8845
:10A0E4001A46039B134419221A70029B1B880133DE
:10A0F4009AB2029B1A80BDF81620029B1B8819464F
:10A10400039B0B4419461046FFF798FE03461A4674
:10A11400029B1B8813449AB2029B1A8000231846A0
:10A1240009B05DF804FB84B0029101921A4603461B
:10A134008DF80F301346ADF80C30019B1B88DA1CE8
:10A14400BDF80C309A4201D90C2328E0019B1B88EE
:10A154001A46029B134402221A70019B1B88013386
:10A164009AB2019B1A80019B1B881A46029B1344D6
:10A1740001221A70019B1B8801339AB2019B1A8039
:10A18400019B1B881A46029B13449DF80F201A70EA
:10A19400019B1B8801339AB2019B1A800023184645
:10A1A40004B0704784B0029101921A4603468DF8B8
:10A1B4000F301346ADF80C30019B1B88DA1CBDF838
:10A1C4000C309A4201D90C2328E0019B1B881A46C3
:10A1D400029B134402221A70019B1B8801339AB21A
:10A1E400019B1A80019B1B881A46029B13440A2276
:10A1F4001A70019B1B8801339AB2019B1A80019B40
:10A204001B881A46029B13449DF80F201A70019B69
:10A214001B8801339AB2019B1A800023184604B0AC
:10A22400704700B58FB0039001930B468DF80B3047
:10A2340013468DF80A3000238DF83330109B1B88A9
:10A24400ADF8303000230D9370E0039B5A680D9BEA
:10A254009B001A4405AB106818600DF11B0105AB97
:10A2640000221846FFF7E6FD0A900A9B0993099B12
:10A27400002B01D0099B7BE09DF81B309DF80A2040
:10A284009A4250D19DF83330002B01D0002300E0D6
:10A2940002238DF82330109B1B881A469DF81B302F
:10A2A4001A449DF823301A44BDF844309A4201DD23
:10A2B4000C235DE09DF8333083F00103DBB2002B07
:10A2C40016D0109B1B8801339AB2109B1A80109BE6
:10A2D4001B881A46019B13449DF80B201A70109B8F
:10A2E4001B8801339AB2109B1A8001238DF83330F6
:10A2F400109B1B881A46019B1A440DF11B0105ABE8
:10A304001846FFF797FD0A900A9B0793079B002BBB
:10A3140001D0079B2CE0109B1B889DF81B20134445
:10A324009AB2109B1A800D9B01330D93039B1B88DB
:10A334001A460D9B934288DB9DF83330002B16D0D0
:10A34400109B1A88BDF83030D31A9BB2013BADF88C
:10A354002E30BDF82E30FF2B01D90C2308E0BDF8B8
:10A364003030019A1344BDF82E20D2B21A70002363
:10A3740018460FB05DF804FB00B58BB0059003934D
:10A384000B468DF8133013468DF812309DF81310D8
:10A39400BDF8343001930C9B0093039B0222059873
:10A3A400FFF73FFF0990099B0893089B002B01D0FE
:10A3B400089B14E09DF81210BDF8343001930C9BF7
:10A3C4000093039B10220598FFF72BFF0990099B2C
:10A3D4000793079B002B01D0079B00E0002318463E
:10A3E4000BB05DF804FB82B00190019B1B88052B28
:10A3F4000AD9019B1B88B3F5486F07D9019B1B88B9
:10A404004FF6FF72934201D0072325E0019B5B883E
:10A41400052B0AD9019B5B88B3F5486F07D9019BCB
:10A424005B884FF6FF72934201D0072314E0019B2F
:10A434001B884FF6FF7293420DD0019B5B884FF649
:10A44400FF72934207D0019B1A88019B5B889A4252
:10A4540001D9072300E00023184602B0704700B575
:10A4640087B0039002910192ADF80230019B1B88E2
:10A474009A1DBDF802309A4201D90C234BE003988F
:10A48400FFF7B1FF0590059B0493049B002B01D0BB
:10A49400049B40E0019B1B881A46029B134405223F
:10A4A4001A70019B1B8801339AB2019B1A80019B8D
:10A4B4001B881A46029B134412221A70019B1B88A4
:10A4C40001339AB2019B1A80039B1A88019B1B8853
:10A4D4001946029B0B4419461046FFF7AFFC03468E
:10A4E4001A46019B1B8813449AB2019B1A80039B52
:10A4F4005A88019B1B881946029B0B441946104637
:10A50400FFF79CFC03461A46019B1B8813449AB22E
:10A51400019B1A800023184607B05DF804FB00B5C0
:10A5240087B0039002910192ADF80230039B9B889F
:10A5340002330593019B1B881A46059B13449A1CFE
:10A54400BDF802309A4201D90C2353E0059BFE2B3F
:10A5540001D90C234EE0059BDAB2019B1B881946F6
:10A56400029B0B440132D2B21A70019B1B88013347
:10A574009AB2019B1A80019B1B881A46029B1344C2
:10A58400FF221A70019B1B8801339AB2019B1A8027
:10A59400039B1A88019B1B881946029B0B4419468E
:10A5A4001046FFF74BFC03461A46019B1B881344D5
:10A5B4009AB2019B1A80039B9B88002B19D0039BA2
:10A5C4009B68002B01D1072314E0019B1B881A46CA
:10A5D400029B9818039B9968039B9B881A4616F064
:10A5E40089FD019B1A88039B9B8813449AB2019BA3
:10A5F4001A800023184607B05DF804FB00B589B043
:10A60400039002910192ADF80230039B9B6A002BE8
:10A6140001D1072371E000238DF81F3065E0039B0F
:10A62400996A9DF81F2013465B0013449B000B445A
:10A634000693069B9B8802330593059BFE2B01D949
:10A644000C235AE0059BDAB2019B1B881946029B36
:10A654000B440132D2B21A70019B1B8801339AB2A7
:10A66400019B1A80019B1B881A46029B13441622E5
:10A674001A70019B1B8801339AB2019B1A80069BB6
:10A684001A88019B1B881946029B0B4419461046E5
:10A69400FFF7D4FB03461A46019B1B8813449AB266
:10A6A400019B1A80069B9B88002B19D0069B9B68F4
:10A6B400002B01D1072320E0019B1B881A46029B33
:10A6C4009818069B9968069B9B881A4616F012FDFB
:10A6D400019B1A88069B9B8813449AB2019B1A809B
:10A6E4009DF81F3001338DF81F30039B93F82C30F5
:10A6F4009DF81F209A4292D30023184609B05DF8B2
:10A7040004FB00B595B005900491039200231393C4
:10A71400039B1B88ADF84A30039B00221A80059BDB
:10A7240093F82D30002B0ED0BDF84A301A46039909
:10A734000498FFF799FB1390139B1193119B002B23
:10A7440001D0119BD8E0059B9B78002B0ED0BDF85F
:10A754004A301A4603990498FFF796FC1390139B0A
:10A764001093109B002B01D0109BC5E0059BDB7858
:10A77400002B10D0059BDB7858B2BDF84A30039A01
:10A784000499FFF7D0FC1390139B0F930F9B002B9E
:10A7940001D00F9BB0E0059B5B68002B11D0059B9B
:10A7A4005B6893F90000BDF84A30039A0499FFF7F7
:10A7B400F9FC1390139B0E930E9B002B01D00E9B60
:10A7C4009AE0059B1B89002B14D0059B03F108001C
:10A7D400BDF84A300193039B0093049B0622022197
:10A7E400FFF7CAFD1390139B0D930D9B002B01D013
:10A7F4000D9B81E0059B1B8A002B14D0059B03F164
:10A804001000BDF84A300193039B0093049B072278
:10A814000321FFF7B1FD1390139B0C930C9B002BAA
:10A8240001D00C9B68E0059B1B8B002B14D0059B6F
:10A8340003F11800BDF84A300193039B0093049B75
:10A8440015221421FFF798FD1390139B0B930B9B78
:10A85400002B01D00B9B4FE0059B1B6A002B0FD0F4
:10A86400059B186ABDF84A30039A0499FFF7F7FD6F
:10A874001390139B0A930A9B002B01D00A9B3BE085
:10A88400059B5B6A002B0FD0059B586ABDF84A30C4
:10A89400039A0499FFF743FE1390139B0993099BB2
:10A8A400002B01D0099B27E0059B93F82C30002B4B
:10A8B4000ED0BDF84A30039A04990598FFF79EFE1E
:10A8C4001390139B0893089B002B01D0089B13E063
:10A8D400059B1B78002B0ED0BDF84A30039A0499CF
:10A8E4000598FFF72AFB1390139B0793079B002BF4
:10A8F40001D0079B00E0139B184615B05DF804FBDC
:10A9040086B0039001921A460B46ADF80A301346FE
:10A914008DF80930039B002B02D0019B002B01D141
:10A9240000235BE00023ADF816300CE0BDF81630D0
:10A93400039A13441B781A46BDF8163013449BB28D
:10A944000133ADF81630BDF816305A1CBDF80A3084
:10A954009A420FDA019B1B88BDF816209A42E5D370
:10A96400BDF816300133039A13441B789DF809206F
:10A974009A42DBD1BDF81620BDF80A309A4201D3C1
:10A9840000232BE0BDF816300233ADF81430BDF8C7
:10A994001630039A13441B78002B07D0BDF81630E9
:10A9A400039A13441B78013B9BB200E00023ADF8EB
:10A9B4001230BDF81230002B08D0BDF81420BDF8B9
:10A9C40012301A44BDF80A309A4201DD002305E032
:10A9D400019BBDF814201A80BDF81230184606B049
:10A9E400704700B585B001900B46ADF802301346B0
:10A9F4008DF801300023ADF80C309DF8013003AA26
:10AA0400BDF802100198FFF77BFF0346ADF80E3046
:10AA1400BDF80E30002B01D1002304E0BDF80C304A
:10AA24001A46019B1344184605B05DF804FB00B5B3
:10AA340089B003900B460192ADF80A300023ADF8BB
:10AA44001630019B002B01D100232DE00DF11602DD
:10AA5400BDF80A1009230398FFF752FF0346ADF827
:10AA64001E30BDF816301A46039B13440693BDF8F6
:10AA74001630002B17D0BDF81E30002B13D00198D0
:10AA840016F0C7FA0246BDF81E309A420BD1BDF843
:10AA94001E301A460699019816F098FA0346002BC0
:10AAA40001D1012300E00023184609B05DF804FB3E
:10AAB40000B58FB003900B460192ADF80A30002325
:10AAC400ADF8263010238DF82530BDF80A30ADF8E6
:10AAD400363005AA0DF1250319460198FFF7AAF9A6
:10AAE4000B90039B002B02D00B9B002B01D0002367
:10AAF40070E09DF82530102B14D0102B19DC022B9C
:10AB040002D0042B07D014E003238DF81030022365
:10AB14008DF811300FE005238DF8103004238DF8E3
:10AB2400113008E007238DF8103006238DF811301A
:10AB340001E000234EE000238DF8353014E09DF849
:10AB4400353038336B4413F8283C0DF12602BDF838
:10AB54000A100398FFF7D4FE0346ADF836309DF88B
:10AB6400353001338DF835309DF83530012B03D85D
:10AB7400BDF82630002BE2D0BDF82630002B01D1E1
:10AB8400002327E0BDF826301A46039B13440A939A
:10AB94000023ADF8323016E0BDF832300A9A13447F
:10ABA4009DF8252005A9184616F010FA0346002B37
:10ABB40001D101230EE09DF825301A46BDF832304C
:10ABC4001344ADF83230BDF83220BDF836309A4225
:10ABD400E2D3002318460FB05DF804FB72DF704720
:10ABE40000BF184673DF704700BF184682B001905B
:10ABF400019B93F83034184602B0704784B001903A
:10AC0400002303930AE0019A039B13441B78002B4F
:10AC140001D0012306E0039B01330393039B052B1F
:10AC2400F1D90023184604B07047000082B00346EF
:10AC34008DF807309DF807305A1C074B83FB02132D
:10AC44005910D317C91A0B469B000B44D11ACBB227
:10AC5400184602B0704700BF6766666682B001900E
:10AC64000091009BDB7B012B04D1009B9A88019B04
:10AC7400A3F8242400BF02B0704700B585B001904A
:10AC84000091019B002283F82E24009B9A88019B4B
:10AC9400B3F824349A4216D1019B1B7983F0010343
:10ACA400DBB2002B0FD00121019800F0B3F903901F
:10ACB400039B002B07D0019B9B6B002B03D0019BB4
:10ACC4009B6B0398984700BF05B05DF804FB00B583
:10ACD40085B001900091009B1B88262B1ED1009B00
:10ACE4001B7A012B03D0009B1B7A022B17D1019BEB
:10ACF4009B781846FFF79AFF03461946019800F01F
:10AD040089F90390039B002B09D0019B9B6B002BBB
:10AD140005D0019B9B6B0398984700E000BF05B0EA
:10AD24005DF804FB00B585B001900B468DF8033047
:10AD3400019B03F227431846FFF760FF03468DF893
:10AD44000F309DF80330013B032B33D801A252F896
:10AD540023F000BF69AD02008DAD0200A1AD020079
:10AD6400ADAD0200019B9B79002B0DD0019B93F8A4
:10AD7400243083F00103DBB2002B05D09DF80F30A3
:10AD8400002B01D0012316E0019BDB79002B05D0B9
:10AD94009DF80F30002B01D002230CE0019B1B7A9D
:10ADA400002B01D0032306E0019B5B7A002B01D02A
:10ADB400042300E00023184605B05DF804FB00BF3F
:10ADC40082B001900091019B012283F83120019B04
:10ADD4000022C3F82024019B03F22642009B5A6000
:10ADE400009B00229A60009B02221A70009B802222
:10ADF4009A810023184602B0704782B001900091F6
:10AE0400019B022283F83120019B93F82430002B0C
:10AE140003D0009B07221A7002E0009B03221A70E1
:10AE2400019B1B699AB2009B9A81019B0022C3F883
:10AE34002024019B03F22642009B5A60019BDA689E
:10AE4400009B9A600023184602B0704700B583B097
:10AE54000190019B5B79002B0FD0019B93F82E345A
:10AE640083F00103DBB2002B07D00198FFF7BEFE8D
:10AE74000346002B01D0012300E0002303F001036B
:10AE8400DBB2184603B05DF804FB00B585B0019051
:10AE94000B468DF80330019BD3F81004019BB3F8E3
:10AEA400143401221946FFF79CFD0390039B002BE9
:10AEB40003D0039B9DF803201A70019B03F15400F7
:10AEC400019B03F58261019B3C331A46FFF786FE22
:10AED4000346184605B05DF804FB00B585B0019043
:10AEE4000091019B5A69009B9A60019B9B699AB2ED
:10AEF400009B9A81019B93F82430002B04D0019B82
:10AF0400062283F83C2003E0019B012283F83C20C5
:10AF14000198FFF79BFF0346002B13D0009B0222EE
:10AF24001A7504210198FFF7B0FF0390039B029365
:10AF3400029B002B01D0029B0FE0019B052283F8AA
:10AF4400312003E0019B032283F83120019B03F5A8
:10AF54008262019BC3F820240023184605B05DF8E3
:10AF640004FB00B585B001900091019BDA69009B58
:10AF74009A60019B1B6A9AB2009B9A81019B93F889
:10AF84002430002B04D0019B062283F83C2003E0EC
:10AF9400019B012283F83C200198FFF757FF0346E9
:10AFA400002B13D0009B02221A7504210198FFF78D
:10AFB4006CFF0390039B0293029B002B01D0029B26
:10AFC4000FE0019B062283F8312003E0019B042259
:10AFD40083F83120019B03F58262019BC3F820248E
:10AFE4000023184605B05DF804FB82B00190019B74
:10AFF4001B68012B07D0019B1B68022B03D0019B0C
:10B004001B68042B01D1012300E00023184602B081
:10B014007047000000B585B001900B468DF80330F1
:10B02400019B1B7883F00103DBB2002B01D00823C2
:10B0340009E1019B9DF803209A70019B03F22643CA
:10B0440007220021184616F087F8019B9B79002BF4
:10B0540003D0019B9B78012B0FD0019BDB79002B44
:10B0640003D0019B9B78012B07D0019BDB79002B3C
:10B0740014D0019B9B78022B10D1019B5B6B002B9E
:10B0840008D0019B012283F82D24019B5B6B0820CF
:10B09400984703E0019B002283F82D249DF8033098
:10B0A40019460198FFF73EFE03461A46019B9A7023
:10B0B400019B5B6B002B20D0019B9B78032B03D05F
:10B0C400019B9B78042B18D1019B5B79002B14D036
:10B0D400019B93F82E3483F00103DBB2002B0CD0D8
:10B0E400019B002283F83024019B012283F82F2442
:10B0F400019B5B6B0720984703E0019B002283F8C8
:10B104002F24019B3C3318220021184616F024F802
:10B11400019B012283F83C20019B2C331846FFF746
:10B1240064FF0346002B06D0019BDB6ADAB2019B65
:10B1340083F8512003E0019B012283F85120019BF5
:10B1440093F82430002B12D0019B28331846FFF7C4
:10B154004CFF0346002B06D0019B9B6ADAB2019B8D
:10B1640083F8522003E0019B012283F85220019BC3
:10B17400002283F85020019B9B78042B31D801A234
:10B1840052F823F0DDB102009DB10200ADB102001E
:10B19400BDB10200CDB10200019B3C3319460198B8
:10B1A400FFF70EFE03901DE0019B3C331946019806
:10B1B400FFF723FE039015E0019B3C3319460198E9
:10B1C400FFF78BFE03900DE0019B3C331946019879
:10B1D400FFF7C7FE039005E0019B002283F83120AE
:10B1E40000E000BF019B9B78002B20D0019B03F162
:10B1F4005400019BD3F82014019B3C331A46FFF7FB
:10B20400EDFC0390039B002B01D0039B1BE0019BEF
:10B2140093F85420019B93F8303019461046FFF7F9
:10B22400E1FC0390039B002B01D0039B0BE0019BEB
:10B234005B6B002B06D0019B5B6B019A92F831206B
:10B24400104698470023184605B05DF804FB00BF7C
:10B2540000B585B001900091009B0393019B1B886E
:10B26400262B10D0262B13DC102B02D0112B05D04B
:10B274000EE001990398FFF7F1FC0AE001990398A5
:10B28400FFF7FBFC05E001990398FFF720FD00E0C0
:10B2940000BF00BF05B05DF804FB75DF704700BF59
:10B2A400184676DF704700BF18467ADF704700BF44
:10B2B40018467BDF704700BF1846000084B0034681
:10B2C400ADF806300023039316E00F49039A1346A2
:10B2D4009B0013449B000B441B88BDF806209A4234
:10B2E40007D1039A13469B0013449B00064A134458
:10B2F40006E0039B01330393039B002BE5D000235B
:10B30400184604B0704700BF2844002082B0019062
:10B314000B46ADF80230019BBDF802201A80019B58
:10B3240000221A72019B054903F10A020B4603CB62
:10B334001060516000BF02B0704700BF5844002045
:10B3440082B00190019B4FF6FF721A8000BF02B0D9
:10B35400704788B00390029111461A460B46ADF827
:10B3640006301346ADF80430039B9B881A46BDF89B
:10B37400063013440793039B9B881946039B9B88C1
:10B38400BDF80620934228BF13469BB2CB1A0693FE
:10B39400039BDB881A46BDF8043013440593039BD2
:10B3A400DB881946039BDB88BDF80420934228BF41
:10B3B40013469BB2CB1A0493029B5A88039B1B88A7
:10B3C4009A4205D3029B5A88039B5B889A4201D90F
:10B3D40000231CE0029B9B881A46069B934205D8D7
:10B3E400029B9B881A46079B934201D200230EE0DE
:10B3F400029BDB881A46049B934205D8029BDB8898
:10B404001A46059B934201D2002300E0012318460B
:10B4140008B0704700B583B00190064B9B69002BC0
:10B4240003D0044B9B690198984700BF03B05DF8B3
:10B4340004FB00BF3C44002000B585B003460091E6
:10B44400ADF80630BDF8063000991846FFF725FF21
:10B454000390039B002B05D0039B112B02D0039870
:10B46400FFF7D8FF039B002B0CBF01230023DBB2A3
:10B47400184605B05DF804FB00B589B00190019B46
:10B484000793079B9BB21846FFF718FF0690069B8D
:10B49400002B42D0069B1A7A224B1B7B9A4215D270
:10B4A400079B9AB2069B0A3319461046FFF7C4FF5E
:10B4B40003468DF813309DF81330002B2DD0069BD6
:10B4C4001B7A0133DAB2069B1A7226E0069B00222D
:10B4D4001A72144B1B7C002B0FD0079B9BB23B2191
:10B4E4001846FFF7DEFE0590059B002B05D0059B53
:10B4F400082B02D00598FFF78DFF0A4B5B69002BE0
:10B504000BD000238DF80C30079B9BB2ADF80E30A6
:10B51400044B5B6903AA1046984700BF09B05DF865
:10B5240004FB00BF3C44002030B587B00190019B70
:10B53400002B01D10E2353E02B4A019B14461D46D8
:10B544000FCD0FC495E8070084E80700264B274A6F
:10B554001A60019B1B68002B11D0019B1B681846C5
:10B56400FFF7A3FE0490049B002B01D0049B37E05B
:10B57400019B1A681D4B1068516803C308E01B48FF
:10B58400FFF797FE0490049B002B01D0049B27E057
:10B594000023059320E0059A13469B0013449B0067
:10B5A400134A134403930398FFF7CAFE059B5B01F8
:10B5B400104A1A44039B5A60039B04330E4A002129
:10B5C40018460EF03DF90490049B002B01D0032390
:10B5D40006E0059B01330593059B002BDBD000237C
:10B5E400184607B030BD00BF3C440020584400203A
:10B5F40028440020084400207DB4020000B587B030
:10B6040003460091ADF80630009B5B7A002B1AD1FB
:10B61400009B1B7A002B03D1164B5B68059302E059
:10B62400144B9B680593009B5B68BDF80620059945
:10B6340018460EF03FF90490049B002B16D0049892
:10B64400FFF7E8FE12E0009B00221A72094B5B69C7
:10B65400002B0BD001238DF80C30BDF80630ADF86B
:10B664000E30044B5B6903AA1046984700BF07B02D
:10B674005DF804FB3C44002000B585B00190019BBB
:10B68400DB7B8DF80F30019B9B88ADF80C309DF867
:10B694000F30012B2CD14FF6FF70FFF70FFE0290F5
:10B6A400029B002B03D10420FFF7B4FE21E0BDF878
:10B6B4000C3019460298FFF729FE029B03F10A0099
:10B6C400019B03F110014FF6FF7340F2F312FFF7F1
:10B6D40040FE03461A46029B5A72074BDB89002B35
:10B6E40007D1BDF80C3002991846FFF787FF00E038
:10B6F40000BF05B05DF804FB3C44002000B587B0F2
:10B704000190019B9B88ADF81630BDF816301846A1
:10B71400FFF7D4FD0490049B002B0ED0049B5B68C0
:10B7240018460EF01FF90390039B002B02D00398D8
:10B73400FFF770FE0498FFF703FE00BF07B05DF843
:10B7440004FB000000B587B00190019B063305930C
:10B75400059B1A88194BDB899A422BD1059B5B897F
:10B76400022B27D1019B9B88ADF81230BDF8123013
:10B774001846FFF7A3FD0390039B002B1AD0059BEB
:10B784000C33184601F0D6FA0346002B06D0BDF858
:10B79400123003991846FFF731FF0BE0039B5B68F7
:10B7A40018460EF0DFF80290029B002B02D002989C
:10B7B400FFF730FE00BF07B05DF804FB3C440020F7
:10B7C40000B585B00190019B9B88ADF80E30BDF8A3
:10B7D4000E301846FFF772FD0290029B002B15D025
:10B7E400029B03F10A00019B03F108014FF6FF736A
:10B7F40040F2F312FFF7ADFD03461A46029B5A725C
:10B80400BDF80E3002991846FFF7F8FE00BF05B0E8
:10B814005DF804FB00B583B001900091019B1B8887
:10B82400502B12D0502B18DC122B12D0122B14DCFC
:10B83400102B02D0112B04D00FE00198FFF71CFF4E
:10B844000CE00198FFF75AFF08E00198FFF77AFF30
:10B8540004E00198FFF7B4FF00E000BF00BF03B0AD
:10B864005DF804FB30B58FB0019000910023029382
:10B87400009B002B1AD000230D9314E06B460D9906
:10B88400184610F088FE0346002B09D0029B5A1C70
:10B8940002920D9A92B25B0038336B4423F82C2C3D
:10B8A4000D9B01330D930D9B132BE7D9019B1D4673
:10B8B40002AC0FCC0FC50FCC0FC594E8070085E888
:10B8C400070001980FB030BD00B585B0019000238A
:10B8D4000393002302930DE001AB0299184610F084
:10B8E4005AFE0346002B02D0039B01330393029BB1
:10B8F40001330293029B132BEED9039B184605B028
:10B904005DF804FB00B583B00346ADF80630BDF81E
:10B914000630132B01D900230CE0BDF8063019467C
:10B92400064810F0E3FDBDF806301946044810F04F
:10B93400DDFD0123184603B05DF804FB68440020D4
:10B944006444002000B585B00346ADF806300023FA
:10B9540003930DE0039B9B00094A13440433BDF891
:10B9640006201146184610F0FDFD039B0133039396
:10B97400039B1D2BEED900BF00BF05B05DF804FB8F
:10B984006044002000B583B00346ADF80630BDF82E
:10B9940006301946034810F0E5FD00BF03B05DF81A
:10B9A40004FB00BF6844002030B59BB0184B9B6873
:10B9B400DB431893164B5A6818AB1146184610F01F
:10B9C400C0FE189A6B4611461846FFF74BFF0DACA4
:10B9D4006D460FCD0FC40FCD0FC495E8070084E862
:10B9E4000700002319930BE0199B5B0068336B4439
:10B9F40033F8303C1846FFF7A5FF199B0133199320
:10BA04000D9B199A9A42EFD300BF00BF1BB030BD03
:10BA14006044002000B583B003468DF807309DF8DC
:10BA240007301946034810F0B6FD0346184603B024
:10BA34005DF804FB6044002000B583B001900B4620
:10BA4400ADF8023013468DF801309DF80130002B1B
:10BA540006D0BDF802301946019810F047FD05E004
:10BA6400BDF802301946019810F07CFD00BF03B008
:10BA74005DF804FB00B585B001900091019B9B88A3
:10BA8400ADF80E30019B1B88103B0A2B00F2888016
:10BA940001A252F823F000BFC9BA020005BB02009C
:10BAA400A5BB0200A5BB0200A5BB0200A5BB02000A
:10BAB400A5BB0200A5BB0200A5BB02006FBB020030
:10BAC40011BB0200FFF770FFBDF80E301846FFF7F8
:10BAD40019FF034683F00103DBB2002B05D0324A81
:10BAE400F02104200DF0BEFA57E0019BDB7B022B12
:10BAF40053D1BDF80E3019462C4810F0F7FC4CE039
:10BB0400BDF80E301846FFF73DFF49E0019B1B7A54
:10BB1400C3F30313DBB28DF80D309DF80D30032B06
:10BB24008CBF01230023DAB2BDF80E301946204839
:10BB3400FFF782FF9DF80D30022B8CBF01230023F9
:10BB4400DAB2BDF80E3019461A48FFF775FF9DF8B2
:10BB54000D30012B8CBF01230023DAB2BDF80E3067
:10BB640019461548FFF768FF1AE0019B1B7A002B62
:10BB740015D1019B5B7AC3F3C003DBB2002B14BF66
:10BB8400012300238DF80C309DF80C20BDF80E30F5
:10BB940019460748FFF750FF01E000BF00E000BF6F
:10BBA40000BF05B05DF804FBF81704006C440020E6
:10BBB40078440020744400207044002000B583B011
:10BBC4000346ADF80630BDF80630132B01D9002327
:10BBD40006E0BDF806301946034810F0DCFC0346C5
:10BBE400184603B05DF804FB6444002000B585B03A
:10BBF4000346ADF8063000238DF80F30BDF806304B
:10BC04001846FFF7DBFF0346002B11D0BDF80630C2
:10BC140019460A4810F0BFFC03468DF80E309DF813
:10BC24000E30002B01D0022300E001238DF80F30E9
:10BC34009DF80F30184605B05DF804FB6C440020F5
:10BC440000B585B00346ADF8063000238DF80F30FB
:10BC5400BDF806301846FFF7B1FF0346002B11D09C
:10BC6400BDF8063019460A4810F095FC03468DF8D5
:10BC74000E309DF80E30002B01D0022300E001238A
:10BC84008DF80F309DF80F30184605B05DF804FBB1
:10BC94006844002000B583B00346ADF80630BDF813
:10BCA40006301846FFF78AFF0346002B07D0BDF87D
:10BCB40006301946044810F06EFC034600E00023E9
:10BCC400184603B05DF804FB7044002000B583B04F
:10BCD4000346ADF80630BDF806301846FFF76EFF90
:10BCE4000346002B07D0BDF806301946044810F06F
:10BCF40052FC034600E00023184603B05DF804FB41
:10BD04007444002000B583B00346ADF80630BDF896
:10BD140006301846FFF752FF0346002B07D0BDF844
:10BD240006301946044810F036FC034600E00023B0
:10BD3400184603B05DF804FB7844002000B583B0D6
:10BD4400094BDB680193084B9A6801AB114618460E
:10BD540010F0F7FC019B1846FFF7B6FD03461846A2
:10BD640003B05DF804FB00BF6044002000B583B05D
:10BD74001821074810F027FC0190019B182B01D1D2
:10BD8400182301E0019BDBB2184603B05DF804FB05
:10BD94006044002000B583B003460A46ADF806307F
:10BDA40013468DF805309DF805301846FFF732FE2E
:10BDB4000346002B16D0BDF806301846FFF7FEFEEA
:10BDC4000346002B0ED09DF8053006339B00084A2D
:10BDD40013440433BDF806201146184610F0DBFB6B
:10BDE400034600E00023184603B05DF804FB00BFDF
:10BDF4006044002000B583B00346ADF806300B461E
:10BE04008DF8053013468DF804309DF8053018463A
:10BE1400FFF700FE0346002B15D0BDF80630184688
:10BE2400FFF7CCFE0346002B0DD09DF805300633FA
:10BE34009B00074A134404339DF80420BDF8061000
:10BE44001846FFF7F9FD00BF03B05DF804FB00BF1F
:10BE54006044002000B587B0039002910192029BD8
:10BE6400002B01D100231FE000230593039B002B2B
:10BE740019D00023049313E003AB0499184610F07F
:10BE84008AFB0346002B08D0049B9AB2029B0199BB
:10BE940010469847059B01330593049B0133049393
:10BEA400049B132BE8D9059B184607B05DF804FBE7
:10BEB40000B585B00346029101928DF80F309DF8CC
:10BEC4000F301846FFF7A6FD034683F00103DBB2EB
:10BED400002B01D000230CE09DF80F30074A0633F5
:10BEE4009B0013445B68019A02991846FFF7B2FF5E
:10BEF4000346184605B05DF804FB00BF604400200B
:10BF040084B001900023039316E0104A039B9B0026
:10BF140013449A78019B9B789A420AD10B4A039B5B
:10BF240032F82320019B1B889A4202D1084B1B68DC
:10BF340008E0039B01330393064B1B68039A9A4260
:10BF4400E3D30023184604B0704700BFDC4400204C
:10BF5400F4440020FC44002000B583B0019000911B
:10BF64000198FFF7CDFF0346002B01D0002314E016
:10BF74000C4B1B68052B0FD80A4B1B680A4A019906
:10BF84009B0013440A4610681860064B1B68013373
:10BF9400044A1360002300E00423184603B05DF84C
:10BFA40004FB00BFFC440020DC44002000B585B045
:10BFB40001900023039311E0019A039BDB011344D6
:10BFC40003F553731B68039AD20102F53472019985
:10BFD4000A4410469847039B01330393064B1B689E
:10BFE400039A9A42E8D3019B0022C3F8CC2200BFF3
:10BFF40005B05DF804FB00BFFC44002000B5A3B00D
:10C0040001900B46ADF8023003AB7C2200211846A8
:10C0140015F0A2F8BDF80230ADF80E3003238DF808
:10C024000C30019B0493064B1B68002B04D0044B7B
:10C034001B6803AA1046984700BF23B05DF804FBB1
:10C04400F444002000B5A7B0039002911346ADF864
:10C054000630039B93F8C6321A46762302FB03F399
:10C06400039A13442593259B1846FFF749FF249010
:10C07400249B002B12D005AB7C220021184615F01E
:10C084006BF801238DF81430BDF80630ADF8163086
:10C09400029B069305AA249B1046984700BF27B02D
:10C0A4005DF804FB00B587B0039002911346ADF828
:10C0B4000630029B0593059B002283F8C822BDF835
:10C0C40006301A4603990598FFF7BCFFBDF8063001
:10C0D40019460598FFF792FF00BF07B05DF804FB0F
:10C0E40000B585B001900B468DF803301346ADF8CA
:10C0F4000030019B93F8C6321A46762302FB03F301
:10C10400019A13440393039B1846FFF7F9FE029028
:10C11400029B002B52D0019BD3F8CC32052B4DD877
:10C12400019BD3F8CC32019ADB01134403F2D223EE
:10C13400BDF800201A80019BD3F8CC32019ADB01B0
:10C14400134403F53473039A0433114676221846D4
:10C1540014F0D0FF9DF80330002B0AD0019BD3F8D4
:10C16400CC32019ADB01134403F5347300221A70B4
:10C1740009E0019BD3F8CC32019ADB01134403F5A7
:10C18400347302221A70019BD3F8CC32019ADB017A
:10C19400134403F55373029A1A60019BD3F8CC320B
:10C1A4005A1C019BC3F8CC22019BD3F8CC22054B2B
:10C1B4001B689A4202D10198FFF7F8FE00BF05B050
:10C1C4005DF804FBFC44002000B58DB001900B46E3
:10C1D400ADF8023002AB20220021184614F0BCFF57
:10C1E400019B93F8C7320133DAB2019B83F8C7226B
:10C1F400019B93F8C7321A462A4B1B689A4244D2D1
:10C20400019B002283F8C522019B93F8C6320133B7
:10C21400DAB2019B83F8C622019B93F8C6321A4610
:10C22400762302FB03F3019A13440B93019B93F8C7
:10C23400C6320B991C4A9B001344186808600B9B78
:10C2440000221A7102238DF808300123ADF818304A
:10C254000B9A0DF11A0312681A60019B0593134B94
:10C264000493134B1B68BDF8022002A9184603F07F
:10C27400F9F90A900A9B002B11D0BDF802301A4636
:10C2840001990A98FFF70EFF09E0019B002283F849
:10C29400C822BDF8023019460198FFF7AFFE0DB071
:10C2A4005DF804FBFC440020DC440020A9C002002B
:10C2B400F844002082B001900091009B1A89019BF0
:10C2C40093F8C63218460199762300FB03F30B4416
:10C2D40008331B889A4201D2012300E00023184648
:10C2E40002B0704784B00390029101920093019BC5
:10C2F400002B25D1029B1A89039B93F8C63218465A
:10C304000399762300FB03F30B4408331B889A42FA
:10C3140001D100232AE0029B1B8901339AB2009BBE
:10C324001A80039B93F8C6321946039A762301FBBD
:10C3340003F3134408331A88009B5A80012315E041
:10C34400029B1B890133019AD288934201D10023B5
:10C354000CE0029B1B8901339AB2009B1A80019B5B
:10C36400DB88013B9AB2009B5A800123184604B033
:10C374007047000000B58FB001900B46ADF8023055
:10C3840002AB20220021184614F0E6FE0AAB042278
:10C394000021184614F0E0FE019B93F8C6321A46B9
:10C3A400762302FB03F3019A13440D93019B93F844
:10C3B400C532002B21D0019B93F8C532013B8DF887
:10C3C4003330019B93F8C6321A46762302FB03F3FB
:10C3D400019A13440D939DF833201346DB00134454
:10C3E4005B0008330D9A134402330B930B9B1B8998
:10C3F40001339BB2ADF8283003E00D9BDB88ADF828
:10C4040028300D9B1B89ADF82A3003238DF80830A2
:10C414000A9B0693019B0593074B0493074B1B68E8
:10C42400BDF8022002A9184603F01CF90346184679
:10C434000FB05DF804FB00BFA9C00200F84400205F
:10C4440000B593B0039002911346ADF80630002373
:10C454008DF8433005AB20220021184614F07CFEF1
:10C46400039B93F8C6321A46762302FB03F3039A1E
:10C4740013440E93039B93F8C5321A461346DB000C
:10C4840013445B0008330E9A134402331193039B45
:10C4940093F8C53201330E9A1279934209D10DAB48
:10C4A400002211990398FFF71DFF03468DF84330CE
:10C4B4003DE0039B93F8C5328DF8423031E09DF89E
:10C4C40042200E9B1B79013B9A4202D100230F9319
:10C4D4000BE09DF842305A1C1346DB0013445B000A
:10C4E40008330E9A134402330F930DAB0F9A11992C
:10C4F4000398FFF7F7FE0346002B03D001238DF8C2
:10C50400433014E00F9B1193039B93F8C53201331E
:10C51400DAB2039B83F8C5229DF8423001338DF8CB
:10C5240042300E9B1B799DF842209A42C7D39DF856
:10C53400433083F00103DBB2002B04D0029B0122C1
:10C544001A70002314E0029B00221A7004238DF851
:10C5540014300D9B0993039B0893074B0793074BD8
:10C564001B68BDF8062005A9184603F07BF80346AE
:10C57400184613B05DF804FBA9C00200F84400207B
:10C5840000B587B001900091019B93F8C6321A461A
:10C59400762302FB03F3019A13440393009B1A8846
:10C5A400019BB3F8CA329A4261D1009B5B88002B8D
:10C5B4004FD1009B06330593039B059A063306323D
:10C5C40012681A60019B93F8C4328DF81330059BEE
:10C5D4001B888DF812309DF813209DF812301344F7
:10C5E400062B0ADC019B93F8C4229DF812301344F5
:10C5F400DAB2019B83F8C42219E0019B062283F876
:10C60400C4221D4A1D4BD31ADB081B0443F002034A
:10C614001B49184612F07AFD174A184BD31ADB0847
:10C624001B0443F002031749184612F06FFD009BE8
:10C634001B8819460198FFF79DFE0290029B002B70
:10C6440016D0009B1B881A4601990298FFF72AFD11
:10C654000EE0009B1B881A4600210198FFF740FD5D
:10C66400009B1B8819460198FFF7AEFD00E000BF50
:10C6740007B05DF804FB00BF9012040050120400E0
:10C68400601804008018040000B58DB0019000917A
:10C6940000238DF82F30009B1A88019BB3F8CA320F
:10C6A4009A4240F0FC80019B93F8C6321A467623E6
:10C6B40002FB03F3019A13440893009B5B88002B4D
:10C6C40040F0BC80009B06330793089B1B798DF8D0
:10C6D4001B30079B1B888DF81A309DF81B209DF892
:10C6E4001A301344062B08DC089B1A799DF81A307B
:10C6F4001344DAB2089B1A711AE0089B06221A71D5
:10C70400694A6A4BD31ADB081B0443F00200089BF6
:10C714001B881A46664912F007FD634A634BD31A15
:10C72400DB081B0443F002036249184612F0EEFCD6
:10C734009DF81B300A930023099345E008990A9A4F
:10C744001346DB0013445B000B4403F10801079814
:10C75400099A13469B0013445B00C2188B1C0232D7
:10C76400106851681860596012891A8108990A9AE8
:10C774001346DB0013445B000B44143300221A807D
:10C7840008990A9A1346DB0013445B000B441633E2
:10C7940000221A8008990A9A1346DB0013445B00AE
:10C7A4000B44183300221A8008990A9A1346DB00B6
:10C7B40013445B000B441A3300221A800A9B013392
:10C7C4000A93099B01330993089B1B791A460A9B18
:10C7D4009342B3D30A9B5A1E1346DB0013445B00F7
:10C7E4000833089A13440233059305990198FFF717
:10C7F40061FD034683F00103DBB2002B03D1089BE8
:10C804001B79062B03D101238DF82F3019E0089BE7
:10C814001A79019B83F8C522009B1B88194601984D
:10C82400FFF7A8FD0490049B002B0AD0009B1B88F3
:10C834001A4601990498FFF735FC31E001238DF87D
:10C844002F309DF82F30002B2AD0019B002283F833
:10C85400C522009B1A880DF10F0319460198FFF7B2
:10C86400EFFD0490049B002B07D0009B1B881A4605
:10C8740001990498FFF716FC12E09DF80F30002B85
:10C884000ED0009B1B881A4601210198FFF728FC53
:10C89400009B1B8819460198FFF796FC00E000BF37
:10C8A4000DB05DF804FB00BF9012040050120400A8
:10C8B400C81804001019040000B589B00190009153
:10C8C400009B1A88019BB3F8CA329A4240F0CC808C
:10C8D400019B93F8C6321A46762302FB03F3019AAE
:10C8E40013440693009B06330593019B93F8C532CA
:10C8F4001A461346DB0013445B000833069A1344BC
:10C9040002330493009B5B88002B70D100230793B0
:10C9140065E00599079A13465B0013445B000B44DA
:10C9240004331B88A3F52453082B45D801A252F8DD
:10C9340023F000BF75C902008DC902005DC9020061
:10C94400BDC90200BDC90200BDC90200BDC90200C3
:10C95400BDC90200A5C902000599079A13465B00E8
:10C9640013445B000B4402331A88049B5A8123E06E
:10C974000599079A13465B0013445B000B4402338A
:10C984001A88049B9A8117E00599079A13465B005D
:10C9940013445B000B4402331A88049BDA810BE0D6
:10C9A4000599079A13465B0013445B000B4402335A
:10C9B4001A88049B1A8200BF049B5B89002B0BD04E
:10C9C400049B9B89002B07D0049BDB89002B03D09D
:10C9D400049B1B8A002B09D1079B01330793059BFA
:10C9E4001B881A46079B934293D300E000BF0023A1
:10C9F4008DF80B30019B93F8C5320133069A1279F6
:10CA0400934203D101238DF80B301BE0019B93F873
:10CA1400C5320133DAB2019B83F8C522009B1A8820
:10CA24000DF10B0319460198FFF70AFD0390039BD0
:10CA3400002B07D0009B1B881A4601990398FFF727
:10CA440031FB12E09DF80B30002B0ED0009B1B88AD
:10CA54001A4601210198FFF743FB009B1B881946E6
:10CA64000198FFF7B1FB00E000BF09B05DF804FBDB
:10CA740084B0019000230393019B002B01D10E236A
:10CA84001AE0019B1B68002B01D10E2314E0019BCB
:10CA94005B68002B01D10E230EE0094B00221A60C3
:10CAA400084B01221A70019B1B68074A1360019B03
:10CAB4005B68064A1360039B184604B0704700BFC6
:10CAC400FC44002000450020F4440020F8440020E9
